:100000000C9446000C945D000C945D000C945D0013
:100010000C945D000C945D000C945D000C945D00EC
:100020000C945D000C945D000C945D000C945D00DC
:100030000C945D000C945D000C945D000C945D00CC
:100040000C945D000C945D000C945D000C945D00BC
:100050000C945D000C945D000C945D000C945D00AC
:100060000C945D000C945D000C945D000C945D009C
:100070000C945D000C945D000C945D000C945D008C
:100080000C945D000C945D000C945D0011241FBE67
:10009000CFEFD0E1DEBFCDBF12E0A0E0B1E0EEE2F5
:1000A000F1E100E00BBF02C007900D92AA32B10748
:1000B000D9F70E9443010C9495080C94000090E03D
:1000C00007C00F920F900F920F900F920F909F5FAB
:1000D0009817B8F308950F931F93CF93DF938C0174
:1000E000C0E0D0E00DC08AEF0E945F008AEF0E945E
:1000F0005F008AEF0E945F008AEF0E945F002196F6
:10010000C017D10780F3DF91CF911F910F91089510
:1001100095B39C7F95BB8BBBA99A0F920F9085B32B
:100120008C7F85BB82E30E945F00089595B39C7F1E
:1001300095BBA89A8BBBA99A0F920F9085B38C7F21
:1001400085BB82E30E945F000895EF92FF920F93B8
:100150001F93DF93CF9300D0CDB7DEB769837A8347
:100160000E94880069817A81462F572F8A0102C038
:100170000E949600F80181918F018823C9F70F90A2
:100180000F90CF91DF911F910F91FF90EF90089505
:10019000A99AA89A85B38C7F85BBA89A82E090E043
:1001A0000E946B0088E30E9488008CE00E94880017
:1001B00086E00E94880081E00E94880082E090E052
:1001C0000E946B00089585B3837085BB089581B349
:1001D0008F7081BB82B1806F82B983B18F7083B918
:1001E00008958FEF8ABB1BBA0895BF92CF92DF921A
:1001F000EF92FF920F931F93CF93DF93EE24FF2490
:10020000C4E0D0E000E010E081E0C82ED12C23B1A2
:10021000C6010C2E02C0880F991F0A94E2F7B82E6F
:10022000282B23B985E090E00E946B0084E090E0E9
:10023000A7014150504020B330E0082E02C0359550
:1002400027950A94E2F720FF03C08A01080F191FBF
:1002500001968830910579F783B1B094B822B3B88C
:10026000219684E090E0E80EF91EC830D10579F6B9
:10027000C801DF91CF911F910F91FF90EF90DF9018
:10028000CF90BF900895AF92BF92CF92DF92EF923E
:10029000FF920F931F93DF93CF93CDB7DEB7609795
:1002A0000FB6F894DEBF0FBECDBF84B38C6F84BB96
:1002B000809161008C7F8093610017B887EF86B9C9
:1002C0000E94F1000E94E7000E94C80085E090E0D3
:1002D0000E946B0000E010E07E010894E11CF11C1C
:1002E00090E0A92E91E0B92E80E090E00E94F50008
:1002F0008330910521F08430910539F404C0AA9A25
:1003000001E010E005C0AA9840C001151105E9F10F
:10031000349BFECF64B175B18DB79EB708970FB609
:10032000F8949EBF0FBE8DBFCDB6DEB60894C11C3B
:10033000D11CEDB7FEB7F282E182F601B382A28250
:1003400080E090E00E94750320E030E040EA50E455
:100350000E94CD0120E030EC4FE754E40E94C70238
:10036000F60164837583868397830E94B5058DB7F4
:100370009EB708960FB6F8949EBF0FBE8DBF80E85B
:10038000B7010E94A500349AAFCF80E861E171E027
:100390000E94A50000E010E0A7CFA0E2B0E0E3EDEE
:1003A000F1E00C947E0569837A838B839C832D8393
:1003B0003E834F835887CE010196BE01675F7F4F12
:1003C0000E941505CE010596BE016F5E7F4F0E940B
:1003D00015059985923078F089898230C0F0943083
:1003E00019F4823041F4CBC0843019F4923079F49E
:1003F000C6C0923051F481E02A859A89291709F400
:1004000080E08A87CE010996BCC0823051F481E039
:100410002A859A89291709F480E08A8BCE014196B2
:10042000B0C06D847E848F849888ED88FE880F89A3
:10043000188DE0E2F0E080E090E0DC01AA24BB242B
:10044000650120E030E0A901B301617070706115B1
:100450007105D1F02E0D3F1D401F511F15012601C2
:10046000280E391E4A1E5B1E81E090E0A0E0B0E03D
:100470002E153F054007510718F080E090E0DC01A1
:10048000820D931DA41DB51DAA0CBB1CCC1CDD1C2C
:1004900017FF09C061E0262E312C412C512CA228D7
:1004A000B328C428D528319749F0EE0CFF1C001F53
:1004B000111F9694879477946794C6CF6B897C8933
:1004C000EB85FC856E0F7F1F6E5F7F4F7C8F6B8F80
:1004D00061E0EA857A89E71709F460E06A8F6B8D3D
:1004E0007C8D10C0FC01E170F070309729F05695BA
:1004F0004795379527955068B695A7959795879511
:100500006F5F7F4FB7FDEECF0CC0880F991FAA1FFA
:10051000BB1F57FD8160220F331F441F551F6150C1
:1005200070408030E0E09E07E0E0AE07E0E4BE0708
:1005300060F36B8F7C8F6FE7E62EF12C012D112D70
:10054000E822F9220A231B2360E4E616F1040105E0
:10055000110561F487FD0AC02115310541055105DA
:1005600029F0805C9F4FAF4FBF4F80788D8F9E8F5B
:10057000AF8FB8A383E0898FCE01499602C082E293
:1005800091E00E944704A096E2E10C949A05A8E14C
:10059000B0E0EDECF2E00C94860569837A838B83FE
:1005A0009C832D833E834F8358878E01075F1F4FA7
:1005B000CE010196B8010E94150581E1E82EF12CCB
:1005C000EC0EFD1ECE010596B7010E94150599851A
:1005D000923008F483C08989823008F47BC02A8570
:1005E0003A8923272A87943011F0923021F4981702
:1005F00009F06CC071C0843039F41D861E861F86D8
:10060000188A1C861B866AC0823019F484E08987A8
:1006100065C08B859C852B893C89821B930B9C87AD
:100620008B872D853E854F855889ED88FE880F89FB
:10063000188D2E153F054007510738F4220F331F40
:10064000441F551F01979C878B876FE170E0A12C99
:10065000B12CC12CA0E4DA2E80E090E0DC012E1554
:100660003F054007510740F08A299B29AC29BD2945
:100670002E193F09400B510BD694C794B794A794F9
:10068000220F331F441F551F6150704041F76FE721
:10069000E62EF12C012D112DE822F9220A231B232D
:1006A00060E4E616F1040105110561F487FD0AC056
:1006B000211531054105510529F0805C9F4FAF4F51
:1006C000BF4F80788D879E87AF87B88B8E01075F7D
:1006D0001F4F04C0870102C002E211E0C8010E945E
:1006E00047046896EAE00C94A205A8E0B0E0EBE7C6
:1006F000F3E00C9488057B018C011A826115710569
:100700008105910519F482E089835FC083E08983C4
:100710008EE1C82ED12CDC82CB82ED82FE820F834B
:100720001887C801B7010E94ED03FC013197F7FF5C
:100730003AC0AA27BB27AE1BBF0B21E030E040E048
:1007400050E00A2E04C0220F331F441F551F0A9485
:10075000D2F721503040404050402E213F214023CD
:10076000512361E070E080E090E021153105410502
:10077000510519F460E070E0CB0104C016950795AF
:10078000F794E794AA95D2F7E62AF72A082B192BB3
:10079000ED82FE820F8318878EE190E08E1B9F0B07
:1007A0009C838B8312C0309781F00E2E04C0EE0C18
:1007B000FF1C001F111F0A94D2F7ED82FE820F83E7
:1007C0001887CE1ADF0ADC82CB82CE0101960E9406
:1007D00047042896E8E00C94A405AF92BF92CF920C
:1007E000DF92EF92FF920F931F937B018C0180E0C9
:1007F000E81680E0F80681E0080780E0180758F462
:10080000EFEFEE16F1040105110509F090F480E018
:1008100090E0DC0117C0F0E0EF16F0E0FF06F0E03A
:100820000F07F1E01F0750F480E190E0A0E0B0E096
:1008300009C088E090E0A0E0B0E004C088E190E06A
:10084000A0E0B0E020E230E040E050E0281B390BAF
:100850004A0B5B0B5701680104C0D694C794B79448
:10086000A7948A95D2F7D601C501865D9E4FFC01FB
:100870008081281B310941095109C9011F910F913C
:10088000FF90EF90DF90CF90BF90AF900895EF92E0
:10089000FF920F931F93CF93DF93FC012481358147
:1008A0004681578161818081823020F44061EFEF81
:1008B000F0E0A3C0843009F49BC0823009F492C0F8
:1008C000211531054105510509F48FC00280F381DE
:1008D000E02D8FEFE238F8070CF05AC0C2E8DFEFE6
:1008E000CE1BDF0BCA31D1056CF579018A010C2EC4
:1008F00004C016950795F794E7940A94D2F781E01F
:1009000090E0A0E0B0E00C2E04C0880F991FAA1F51
:10091000BB1F0A94D2F70197A109B109822393233F
:10092000A423B52321E030E040E050E00097A1058A
:10093000B10519F420E030E0A9012E293F29402B10
:10094000512B03C020E030E0A901DA01C9018F7703
:100950009070A070B07080349105A105B10539F494
:1009600027FF09C0205C3F4F4F4F5F4F04C0215C01
:100970003F4F4F4F5F4FE1E0F0E0203080E038071D
:1009800080E0480780E4580728F5E0E0F0E022C066
:10099000E038F1056CF5E158FF4FDA01C9018F77B6
:1009A0009070A070B07080349105A105B10539F444
:1009B00027FF09C0205C3F4F4F4F5F4F04C0215CB1
:1009C0003F4F4F4F5F4F57FF05C05695479537959F
:1009D0002795319687E056954795379527958A95BF
:1009E000D1F70BC0E0E0F0E005C0E0E0F0E005C0CA
:1009F000EFEFF0E020E030E0A9018E2F8795882707
:100A00008795942F9F77679566276795E695E22EE1
:100A1000A92FA82BFE2FF62B622F732F8A2F9F2F23
:100A2000CDB7DEB7E6E00C94A605DC01FB012C9106
:100A300011963C91119712968C911297482F4F77EF
:100A400050E0982F991F9927991F13966C9113972F
:100A5000862F880F892B90E0661F6627661F6183AB
:100A6000009739F5211531054105510511F482E052
:100A700029C082E89FEF9383828367E0220F331FB0
:100A8000441F551F6A95D1F783E0808309C0220F68
:100A9000331F441F551F8281938101979383828363
:100AA000203080E0380780E0480780E4580778F37A
:100AB00020C08F3F910579F421153105410551057D
:100AC00019F484E08083089544FF03C081E08083AB
:100AD00010C010820EC08F5790409383828383E0B2
:100AE000808387E0220F331F441F551F8A95D1F75B
:100AF0005064248335834683578308952F923F9211
:100B00004F925F926F927F928F929F92AF92BF921D
:100B1000CF92DF92EF92FF920F931F93CF93DF93C9
:100B2000CDB7DEB7CA1BDB0B0FB6F894DEBF0FBE26
:100B3000CDBF09942A88398848885F846E847D8473
:100B40008C849B84AA84B984C884DF80EE80FD8075
:100B50000C811B81AA81B981CE0FD11D0FB6F894EB
:100B6000DEBF0FBECDBFED0108950F931F93DF933E
:100B7000CF93CDB7DEB72E970FB6F894DEBF0FBE7A
:100B8000CDBF0D891E8986E08C831A8309838FEF80
:100B90009FE79E838D839E01275E3F4FCE01019686
:100BA0006F89788DA9010E94E505EF81F885E00F36
:100BB000F11F10822E960FB6F894DEBF0FBECDBF88
:100BC000CF91DF911F910F9108952F923F924F92F5
:100BD0005F926F927F928F929F92AF92BF92CF92CD
:100BE000DF92EF92FF920F931F93DF93CF93CDB7D6
:100BF000DEB72C970FB6F894DEBF0FBECDBF6C01E9
:100C00001B018A01FC0117821682838181FFD1C1F9
:100C10002E010894411C511CF6019381F10193FDB2
:100C2000859193FF81911F01882309F4BEC185320C
:100C300039F493FD859193FF81911F01853229F449
:100C400090E0B6010E940B08E7CFEE24FF2420E0DD
:100C50002032B0F48B3269F08C3228F4803251F0BB
:100C6000833271F40BC08D3239F0803349F4216046
:100C70002CC02260246029C0286027C0206125C0C4
:100C800027FD2CC0382F30533A3098F426FF08C087
:100C90008E2D880FE82EEE0CEE0CE80EE30E15C03C
:100CA0008F2D880FF82EFF0CFF0CF80EF30E20622C
:100CB0000CC08E3221F426FD78C1206406C08C362B
:100CC00011F4206802C0883649F4F10193FD859142
:100CD00093FF81911F01882309F0BACF982F955473
:100CE000933018F09052933028F40C5F1F4FFFE3BD
:100CF000F9830DC0833631F0833771F0833509F005
:100D000060C022C0F801808189830E5F1F4F4201BD
:100D100071E0A72EB12C16C062E0662E712C600E19
:100D2000711EF8018080918026FF03C06E2D70E057
:100D300002C06FEF7FEFC4012C870E9400085C01A6
:100D400083012C852F7717C052E0652E712C600E21
:100D5000711EF8018080918026FF03C06E2D70E027
:100D600002C06FEF7FEFC4012C870E94F5075C0182
:100D70002C852068830123FD20C008C080E290E01C
:100D8000B6012C870E940B08FA942C858F2D90E0D9
:100D9000A816B90698F311C0F40127FD859127FF25
:100DA00081914F0190E0B6012C870E940B082C85A1
:100DB000F110FA940894A108B108A114B10461F7E4
:100DC000F1C0843611F0893649F527FF08C0F801D3
:100DD00060817181828193810C5F1F4F09C0F8018E
:100DE00060817181882777FD8095982F0E5F1F4F56
:100DF0004FE6B42EB22297FF09C09095809570956A
:100E000061957F4F8F4F9F4FF0E8BF2AA2012AE0E4
:100E100030E00E943708782E741845C0853731F4C9
:100E20003FEEB32EB2222AE030E025C099EFB92E72
:100E3000B2228F36C1F0803720F4883509F0B5C072
:100E40000DC0803721F0883709F0AFC002C020E123
:100E5000B22AB4FE0BC084E0B82A08C0B4FE09C0B0
:100E6000E6E0BE2A06C028E030E005C020E130E020
:100E700002C020E132E0B7FE08C0F8016081718154
:100E8000828193810C5F1F4F07C0F80160817181DF
:100E900080E090E00E5F1F4FA2010E943708782E7D
:100EA0007418FFE7BF22B6FE0BC02EEFB2227E14ED
:100EB00038F4B4FE07C0B2FC05C08FEEB82202C001
:100EC000A72C01C0AE2C8B2D90E0B4FE0DC0FE010E
:100ED000E70DF11D2081203319F4E9EEBE2209C08F
:100EE000A394B2FE06C004C086789070009709F003
:100EF000A3948B2C9924B3FC14C0B0FE0FC0AF1484
:100F000028F4E72CEF0CEA18AF2C08C0E72C06C039
:100F100080E290E0B6010E940B08A394AF14C0F3E6
:100F200004C0AF1410F4FA1801C0FF2484FE0FC0EF
:100F300080E390E0B6010E940B0882FE1FC081FE94
:100F400003C088E590E010C088E790E00DC0C401C0
:100F500086789070009791F081FC02C080E201C019
:100F60008BE2B7FC8DE290E0B6010E940B0806C050
:100F700080E390E0B6010E940B08EA947E14C0F36F
:100F80007A94F201E70DF11D808190E0B6010E9494
:100F90000B087720A9F706C080E290E0B6010E9416
:100FA0000B08FA94FF20C1F737CEF601268137816E
:100FB00002C02FEF3FEFC9012C960FB6F894DEBFA9
:100FC0000FBECDBFCF91DF911F910F91FF90EF909A
:100FD000DF90CF90BF90AF909F908F907F906F9059
:100FE0005F904F903F902F900895FC0105906150C5
:100FF00070400110D8F7809590958E0F9F1F08952F
:10100000FC016150704001900110D8F780959095D7
:101010008E0F9F1F08950F931F93CF93DF938C0123
:10102000EB018B8181FF1BC082FF0DC02E813F81B0
:101030008C819D812817390764F4E881F981019337
:10104000F983E88306C0E885F985802F0995009724
:1010500031F48E819F8101969F838E8302C00FEFB2
:101060001FEFC801DF91CF911F910F910895FA01F1
:10107000AA27283051F1203181F1E8946F936E7FD7
:101080006E5F7F4F8F4F9F4FAF4FB1E03ED0B4E0C8
:101090003CD0670F781F891F9A1FA11D680F791F09
:1010A0008A1F911DA11D6A0F711D811D911DA11D1A
:1010B00020D009F468943F912AE0269F112430192A
:1010C000305D3193DEF6CF010895462F4770405DC5
:1010D0004193B3E00FD0C9F7F6CF462F4F70405D74
:1010E0004A3318F0495D31FD4052419302D0A9F7CF
:1010F000EACFB4E0A6959795879577956795BA95C9
:10110000C9F700976105710508959B01AC010A2E8E
:1011100006945795479537952795BA95C9F7620F65
:0E112000731F841F951FA01D0895F894FFCF24
:10112E0025352E32665B565D202020202020202083
:10113E000045683F2E2E2E2020202020202020200B
:10114E002000000000000000000000010202030366
:10115E00030304040404040404040505050505053D
:10116E00050505050505050505050606060606061B
:10117E000606060606060606060606060606060601
:10118E0006060606060606060606070707070707EB
:10119E0007070707070707070707070707070707D1
:1011AE0007070707070707070707070707070707C1
:1011BE0007070707070707070707070707070707B1
:1011CE00070707070707070707070808080808089B
:1011DE000808080808080808080808080808080881
:1011EE000808080808080808080808080808080871
:1011FE000808080808080808080808080808080861
:10120E000808080808080808080808080808080850
:10121E000808080808080808080808080808080840
:10122E000808080808080808080808080808080830
:10123E000808080808080808080808080808080820
:0A124E000808080808080808080846
:00000001FF
